{
  "contractName": "PessoasNaSala",
  "abi": [
    {
      "inputs": [],
      "payable": false,
      "stateMutability": "nonpayable",
      "type": "constructor"
    },
    {
      "constant": false,
      "inputs": [],
      "name": "checkin",
      "outputs": [],
      "payable": false,
      "stateMutability": "nonpayable",
      "type": "function"
    },
    {
      "constant": true,
      "inputs": [],
      "name": "getQtd",
      "outputs": [
        {
          "name": "",
          "type": "uint256"
        }
      ],
      "payable": false,
      "stateMutability": "view",
      "type": "function"
    }
  ],
  "bytecode": "0x608060405234801561001057600080fd5b5033600160006101000a81548173ffffffffffffffffffffffffffffffffffffffff021916908373ffffffffffffffffffffffffffffffffffffffff16021790555061016a806100616000396000f3fe608060405234801561001057600080fd5b50600436106100365760003560e01c8063baeb07181461003b578063eec9ed8d14610045575b600080fd5b610043610063565b005b61004d610135565b6040518082815260200191505060405180910390f35b600160009054906101000a900473ffffffffffffffffffffffffffffffffffffffff1673ffffffffffffffffffffffffffffffffffffffff163373ffffffffffffffffffffffffffffffffffffffff161415610127576040517f08c379a000000000000000000000000000000000000000000000000000000000815260040180806020018281038252601f8152602001807f4f776e6572206973206e6f7420616c6c6f77656420746f20636865636b696e0081525060200191505060405180910390fd5b600160005401600081905550565b6000805490509056fea165627a7a7230582036e2a8f53442b2d3fcf0613e2d275209d70740aa9c5385cec3e7b930df2921210029",
  "source": "pragma solidity ^0.5.0;\n\ncontract PessoasNaSala {\n\tuint qtd;\n\taddress owner;\n\n\tconstructor() public {\n\t\towner = msg.sender;\n\t}\n\n\tfunction checkin() public {\n\t\trequire(msg.sender != owner, \"Owner is not allowed to checkin\");\n\t\tqtd = qtd + 1;\n\t}\n\n\tfunction getQtd() public view returns(uint){\n\t\treturn qtd;\n\t}\n}\n",
  "sourcePath": "/home/palmdev/projects/blockchain/pessoas-chain/contracts/pessoas.sol",
  "compiler": {
    "name": "solc",
    "version": "0.5.8+commit.23d335f2.Emscripten.clang"
  },
  "schemaVersion": "3.0.16",
  "updatedAt": "2019-11-11T23:17:26.250Z",
  "devdoc": {
    "methods": {}
  },
  "userdoc": {
    "methods": {}
  }
}